{
  "contractName": "SolnSquareVerifier",
  "abi": [
    {
      "constant": true,
      "inputs": [
        {
          "name": "interfaceId",
          "type": "bytes4"
        }
      ],
      "name": "supportsInterface",
      "outputs": [
        {
          "name": "",
          "type": "bool"
        }
      ],
      "payable": false,
      "stateMutability": "view",
      "type": "function"
    },
    {
      "constant": true,
      "inputs": [],
      "name": "name",
      "outputs": [
        {
          "name": "",
          "type": "string"
        }
      ],
      "payable": false,
      "stateMutability": "view",
      "type": "function"
    },
    {
      "constant": true,
      "inputs": [
        {
          "name": "tokenId",
          "type": "uint256"
        }
      ],
      "name": "getApproved",
      "outputs": [
        {
          "name": "",
          "type": "address"
        }
      ],
      "payable": false,
      "stateMutability": "view",
      "type": "function"
    },
    {
      "constant": false,
      "inputs": [
        {
          "name": "to",
          "type": "address"
        },
        {
          "name": "tokenId",
          "type": "uint256"
        }
      ],
      "name": "approve",
      "outputs": [],
      "payable": false,
      "stateMutability": "nonpayable",
      "type": "function"
    },
    {
      "constant": false,
      "inputs": [
        {
          "name": "mode",
          "type": "bool"
        }
      ],
      "name": "setPaused",
      "outputs": [],
      "payable": false,
      "stateMutability": "nonpayable",
      "type": "function"
    },
    {
      "constant": true,
      "inputs": [],
      "name": "totalSupply",
      "outputs": [
        {
          "name": "",
          "type": "uint256"
        }
      ],
      "payable": false,
      "stateMutability": "view",
      "type": "function"
    },
    {
      "constant": false,
      "inputs": [
        {
          "name": "from",
          "type": "address"
        },
        {
          "name": "to",
          "type": "address"
        },
        {
          "name": "tokenId",
          "type": "uint256"
        }
      ],
      "name": "transferFrom",
      "outputs": [],
      "payable": false,
      "stateMutability": "nonpayable",
      "type": "function"
    },
    {
      "constant": false,
      "inputs": [
        {
          "name": "_myid",
          "type": "bytes32"
        },
        {
          "name": "_result",
          "type": "string"
        }
      ],
      "name": "__callback",
      "outputs": [],
      "payable": false,
      "stateMutability": "nonpayable",
      "type": "function"
    },
    {
      "constant": true,
      "inputs": [
        {
          "name": "owner",
          "type": "address"
        },
        {
          "name": "index",
          "type": "uint256"
        }
      ],
      "name": "tokenOfOwnerByIndex",
      "outputs": [
        {
          "name": "",
          "type": "uint256"
        }
      ],
      "payable": false,
      "stateMutability": "view",
      "type": "function"
    },
    {
      "constant": false,
      "inputs": [
        {
          "name": "_myid",
          "type": "bytes32"
        },
        {
          "name": "_result",
          "type": "string"
        },
        {
          "name": "_proof",
          "type": "bytes"
        }
      ],
      "name": "__callback",
      "outputs": [],
      "payable": false,
      "stateMutability": "nonpayable",
      "type": "function"
    },
    {
      "constant": false,
      "inputs": [
        {
          "name": "to",
          "type": "address"
        },
        {
          "name": "tokenId",
          "type": "uint256"
        }
      ],
      "name": "mint",
      "outputs": [
        {
          "name": "",
          "type": "bool"
        }
      ],
      "payable": false,
      "stateMutability": "nonpayable",
      "type": "function"
    },
    {
      "constant": false,
      "inputs": [
        {
          "name": "from",
          "type": "address"
        },
        {
          "name": "to",
          "type": "address"
        },
        {
          "name": "tokenId",
          "type": "uint256"
        }
      ],
      "name": "safeTransferFrom",
      "outputs": [],
      "payable": false,
      "stateMutability": "nonpayable",
      "type": "function"
    },
    {
      "constant": true,
      "inputs": [
        {
          "name": "index",
          "type": "uint256"
        }
      ],
      "name": "tokenByIndex",
      "outputs": [
        {
          "name": "",
          "type": "uint256"
        }
      ],
      "payable": false,
      "stateMutability": "view",
      "type": "function"
    },
    {
      "constant": true,
      "inputs": [
        {
          "name": "tokenId",
          "type": "uint256"
        }
      ],
      "name": "ownerOf",
      "outputs": [
        {
          "name": "",
          "type": "address"
        }
      ],
      "payable": false,
      "stateMutability": "view",
      "type": "function"
    },
    {
      "constant": true,
      "inputs": [
        {
          "name": "owner",
          "type": "address"
        }
      ],
      "name": "balanceOf",
      "outputs": [
        {
          "name": "",
          "type": "uint256"
        }
      ],
      "payable": false,
      "stateMutability": "view",
      "type": "function"
    },
    {
      "constant": true,
      "inputs": [],
      "name": "owner",
      "outputs": [
        {
          "name": "",
          "type": "address"
        }
      ],
      "payable": false,
      "stateMutability": "view",
      "type": "function"
    },
    {
      "constant": true,
      "inputs": [],
      "name": "symbol",
      "outputs": [
        {
          "name": "",
          "type": "string"
        }
      ],
      "payable": false,
      "stateMutability": "view",
      "type": "function"
    },
    {
      "constant": false,
      "inputs": [
        {
          "name": "to",
          "type": "address"
        },
        {
          "name": "approved",
          "type": "bool"
        }
      ],
      "name": "setApprovalForAll",
      "outputs": [],
      "payable": false,
      "stateMutability": "nonpayable",
      "type": "function"
    },
    {
      "constant": false,
      "inputs": [
        {
          "name": "from",
          "type": "address"
        },
        {
          "name": "to",
          "type": "address"
        },
        {
          "name": "tokenId",
          "type": "uint256"
        },
        {
          "name": "_data",
          "type": "bytes"
        }
      ],
      "name": "safeTransferFrom",
      "outputs": [],
      "payable": false,
      "stateMutability": "nonpayable",
      "type": "function"
    },
    {
      "constant": true,
      "inputs": [
        {
          "name": "tokenId",
          "type": "uint256"
        }
      ],
      "name": "tokenURI",
      "outputs": [
        {
          "name": "",
          "type": "string"
        }
      ],
      "payable": false,
      "stateMutability": "view",
      "type": "function"
    },
    {
      "constant": true,
      "inputs": [],
      "name": "baseTokenURI",
      "outputs": [
        {
          "name": "",
          "type": "string"
        }
      ],
      "payable": false,
      "stateMutability": "view",
      "type": "function"
    },
    {
      "constant": true,
      "inputs": [
        {
          "name": "owner",
          "type": "address"
        },
        {
          "name": "operator",
          "type": "address"
        }
      ],
      "name": "isApprovedForAll",
      "outputs": [
        {
          "name": "",
          "type": "bool"
        }
      ],
      "payable": false,
      "stateMutability": "view",
      "type": "function"
    },
    {
      "constant": false,
      "inputs": [
        {
          "name": "newOwner",
          "type": "address"
        }
      ],
      "name": "transferOwnership",
      "outputs": [],
      "payable": false,
      "stateMutability": "nonpayable",
      "type": "function"
    },
    {
      "inputs": [
        {
          "name": "verifierAddress",
          "type": "address"
        }
      ],
      "payable": false,
      "stateMutability": "nonpayable",
      "type": "constructor"
    },
    {
      "anonymous": false,
      "inputs": [
        {
          "indexed": false,
          "name": "index",
          "type": "uint256"
        },
        {
          "indexed": false,
          "name": "to",
          "type": "address"
        },
        {
          "indexed": false,
          "name": "key",
          "type": "bytes32"
        }
      ],
      "name": "SolutionAdded",
      "type": "event"
    },
    {
      "anonymous": false,
      "inputs": [
        {
          "indexed": true,
          "name": "from",
          "type": "address"
        },
        {
          "indexed": true,
          "name": "to",
          "type": "address"
        },
        {
          "indexed": true,
          "name": "tokenId",
          "type": "uint256"
        }
      ],
      "name": "Transfer",
      "type": "event"
    },
    {
      "anonymous": false,
      "inputs": [
        {
          "indexed": true,
          "name": "owner",
          "type": "address"
        },
        {
          "indexed": true,
          "name": "approved",
          "type": "address"
        },
        {
          "indexed": true,
          "name": "tokenId",
          "type": "uint256"
        }
      ],
      "name": "Approval",
      "type": "event"
    },
    {
      "anonymous": false,
      "inputs": [
        {
          "indexed": true,
          "name": "owner",
          "type": "address"
        },
        {
          "indexed": true,
          "name": "operator",
          "type": "address"
        },
        {
          "indexed": false,
          "name": "approved",
          "type": "bool"
        }
      ],
      "name": "ApprovalForAll",
      "type": "event"
    },
    {
      "anonymous": false,
      "inputs": [
        {
          "indexed": false,
          "name": "whoPaused",
          "type": "address"
        }
      ],
      "name": "Paused",
      "type": "event"
    },
    {
      "anonymous": false,
      "inputs": [
        {
          "indexed": false,
          "name": "whoUnpaused",
          "type": "address"
        }
      ],
      "name": "Unpaused",
      "type": "event"
    },
    {
      "anonymous": false,
      "inputs": [
        {
          "indexed": false,
          "name": "from",
          "type": "address"
        },
        {
          "indexed": false,
          "name": "to",
          "type": "address"
        }
      ],
      "name": "OwnerShipTrasnferred",
      "type": "event"
    },
    {
      "constant": false,
      "inputs": [
        {
          "name": "index",
          "type": "uint256"
        },
        {
          "name": "to",
          "type": "address"
        },
        {
          "name": "key",
          "type": "bytes32"
        }
      ],
      "name": "addSolution",
      "outputs": [],
      "payable": false,
      "stateMutability": "nonpayable",
      "type": "function"
    },
    {
      "constant": false,
      "inputs": [
        {
          "name": "to",
          "type": "address"
        },
        {
          "name": "tokenId",
          "type": "uint256"
        },
        {
          "components": [
            {
              "components": [
                {
                  "name": "X",
                  "type": "uint256"
                },
                {
                  "name": "Y",
                  "type": "uint256"
                }
              ],
              "name": "a",
              "type": "tuple"
            },
            {
              "components": [
                {
                  "name": "X",
                  "type": "uint256[2]"
                },
                {
                  "name": "Y",
                  "type": "uint256[2]"
                }
              ],
              "name": "b",
              "type": "tuple"
            },
            {
              "components": [
                {
                  "name": "X",
                  "type": "uint256"
                },
                {
                  "name": "Y",
                  "type": "uint256"
                }
              ],
              "name": "c",
              "type": "tuple"
            }
          ],
          "name": "proof",
          "type": "tuple"
        },
        {
          "name": "inputs",
          "type": "uint256[1]"
        }
      ],
      "name": "mintToken",
      "outputs": [],
      "payable": false,
      "stateMutability": "nonpayable",
      "type": "function"
    },
    {
      "constant": true,
      "inputs": [
        {
          "name": "a",
          "type": "uint256[2]"
        },
        {
          "name": "b",
          "type": "uint256[2][2]"
        },
        {
          "name": "c",
          "type": "uint256[2]"
        },
        {
          "name": "inputs",
          "type": "uint256[1]"
        }
      ],
      "name": "generateKey",
      "outputs": [
        {
          "name": "",
          "type": "bytes32"
        }
      ],
      "payable": false,
      "stateMutability": "pure",
      "type": "function"
    }
  ],
  "bytecode": "0x60806040526040518060600160405280603f815260200162004175603f91396013908051906020019062000035929190620003c3565b503480156200004357600080fd5b50604051602080620041b4833981018060405262000065919081019062000488565b6040518060400160405280600481526020017f50544f4b000000000000000000000000000000000000000000000000000000008152506040518060400160405280600381526020017f53594d0000000000000000000000000000000000000000000000000000000000815250818160138054600181600116156101000203166002900480601f0160208091040260200160405190810160405280929190818152602001828054600181600116156101000203166002900480156200016d5780601f1062000141576101008083540402835291602001916200016d565b820191906000526020600020905b8154815290600101906020018083116200014f57829003601f168201915b5050505050336000806101000a81548173ffffffffffffffffffffffffffffffffffffffff021916908373ffffffffffffffffffffffffffffffffffffffff1602179055507f3511b702d5ff40e5fdc0ca67119c0c54db468b05276089de85bb310f47308de560008060009054906101000a900473ffffffffffffffffffffffffffffffffffffffff1660405162000207929190620004d6565b60405180910390a160008060146101000a81548160ff021916908315150217905550620002416301ffc9a760e01b6200032160201b60201c565b620002596380ac58cd60e01b6200032160201b60201c565b6200027163780e9d6360e01b6200032160201b60201c565b82600f908051906020019062000289929190620003c3565b508160109080519060200190620002a2929190620003c3565b508060119080519060200190620002bb929190620003c3565b50620002d4635b5e139f60e01b6200032160201b60201c565b505050505080601460006101000a81548173ffffffffffffffffffffffffffffffffffffffff021916908373ffffffffffffffffffffffffffffffffffffffff16021790555050620005a7565b63ffffffff60e01b817bffffffffffffffffffffffffffffffffffffffffffffffffffffffff1916141515156200035757600080fd5b6001806000837bffffffffffffffffffffffffffffffffffffffffffffffffffffffff19167bffffffffffffffffffffffffffffffffffffffffffffffffffffffff1916815260200190815260200160002060006101000a81548160ff02191690831515021790555050565b828054600181600116156101000203166002900490600052602060002090601f016020900481019282601f106200040657805160ff191683800117855562000437565b8280016001018555821562000437579182015b828111156200043657825182559160200191906001019062000419565b5b5090506200044691906200044a565b5090565b6200046f91905b808211156200046b57600081600090555060010162000451565b5090565b90565b600062000480825162000537565b905092915050565b6000602082840312156200049b57600080fd5b6000620004ab8482850162000472565b91505092915050565b620004bf816200056b565b82525050565b620004d08162000503565b82525050565b6000604082019050620004ed6000830185620004b4565b620004fc6020830184620004c5565b9392505050565b6000620005108262000517565b9050919050565b600073ffffffffffffffffffffffffffffffffffffffff82169050919050565b600062000544826200054b565b9050919050565b600073ffffffffffffffffffffffffffffffffffffffff82169050919050565b600062000578826200057f565b9050919050565b60006200058c8262000593565b9050919050565b6000620005a08262000517565b9050919050565b613bbe80620005b76000396000f3fe608060405234801561001057600080fd5b506004361061018e5760003560e01c80636352211e116100de578063a22cb46511610097578063c87b56dd11610071578063c87b56dd146104a3578063d547cfb7146104d3578063e985e9c5146104f1578063f2fde38b146105215761018e565b8063a22cb4651461044f578063b3b720071461046b578063b88d4fde146104875761018e565b80636352211e146103675780636e59236b1461039757806370a08231146103b35780638da5cb5b146103e357806395d89b41146104015780639bb640b51461041f5761018e565b806323b872dd1161014b57806338bbfa501161012557806338bbfa50146102cf57806340c10f19146102eb57806342842e0e1461031b5780634f6ccce7146103375761018e565b806323b872dd1461026757806327dc297e146102835780632f745c591461029f5761018e565b806301ffc9a71461019357806306fdde03146101c3578063081812fc146101e1578063095ea7b31461021157806316c38b3c1461022d57806318160ddd14610249575b600080fd5b6101ad60048036036101a89190810190612e5c565b61053d565b6040516101ba9190613647565b60405180910390f35b6101cb6105a5565b6040516101d8919061367d565b60405180910390f35b6101fb60048036036101f69190810190612eae565b610647565b604051610208919061359c565b60405180910390f35b61022b60048036036102269190810190612c31565b610684565b005b61024760048036036102429190810190612d37565b610868565b005b6102516109a6565b60405161025e91906137ca565b60405180910390f35b610281600480360361027c9190810190612b2b565b6109b3565b005b61029d60048036036102989190810190612d89565b6109d8565b005b6102b960048036036102b49190810190612c31565b610a1b565b6040516102c691906137ca565b60405180910390f35b6102e960048036036102e49190810190612ddd565b610a92565b005b61030560048036036103009190810190612c31565b610a97565b6040516103129190613647565b60405180910390f35b61033560048036036103309190810190612b2b565b610b47565b005b610351600480360361034c9190810190612eae565b610b67565b60405161035e91906137ca565b60405180910390f35b610381600480360361037c9190810190612eae565b610b9f565b60405161038e919061359c565b60405180910390f35b6103b160048036036103ac9190810190612c6d565b610bdc565b005b6103cd60048036036103c89190810190612ac6565b610d9e565b6040516103da91906137ca565b60405180910390f35b6103eb610dee565b6040516103f8919061359c565b60405180910390f35b610409610e17565b604051610416919061367d565b60405180910390f35b61043960048036036104349190810190612cd2565b610eb9565b6040516104469190613662565b60405180910390f35b61046960048036036104649190810190612bf5565b610ef2565b005b61048560048036036104809190810190612ed7565b61102a565b005b6104a1600480360361049c9190810190612b7a565b61118a565b005b6104bd60048036036104b89190810190612eae565b6111b2565b6040516104ca919061367d565b60405180910390f35b6104db61127b565b6040516104e8919061367d565b60405180910390f35b61050b60048036036105069190810190612aef565b61131d565b6040516105189190613647565b60405180910390f35b61053b60048036036105369190810190612ac6565b6113b1565b005b600060016000837bffffffffffffffffffffffffffffffffffffffffffffffffffffffff19167bffffffffffffffffffffffffffffffffffffffffffffffffffffffff1916815260200190815260200160002060009054906101000a900460ff169050919050565b6060600f8054600181600116156101000203166002900480601f01602080910402602001604051908101604052809291908181526020018280546001816001161561010002031660029004801561063d5780601f106106125761010080835404028352916020019161063d565b820191906000526020600020905b81548152906001019060200180831161062057829003601f168201915b5050505050905090565b60006003600083815260200190815260200160002060009054906101000a900473ffffffffffffffffffffffffffffffffffffffff169050919050565b6002600082815260200190815260200160002060009054906101000a900473ffffffffffffffffffffffffffffffffffffffff1673ffffffffffffffffffffffffffffffffffffffff168273ffffffffffffffffffffffffffffffffffffffff1614151515610728576040517f08c379a000000000000000000000000000000000000000000000000000000000815260040161071f9061369f565b60405180910390fd5b610730610dee565b73ffffffffffffffffffffffffffffffffffffffff163373ffffffffffffffffffffffffffffffffffffffff161480610776575061077561076f610dee565b3361131d565b5b15156107b7576040517f08c379a00000000000000000000000000000000000000000000000000000000081526004016107ae906136df565b60405180910390fd5b816003600083815260200190815260200160002060006101000a81548173ffffffffffffffffffffffffffffffffffffffff021916908373ffffffffffffffffffffffffffffffffffffffff160217905550808273ffffffffffffffffffffffffffffffffffffffff163373ffffffffffffffffffffffffffffffffffffffff167f8c5be1e5ebec7d5bd14f71427d1e84f3dd0314c0f7b2291e5b200ac8c7c3b92560405160405180910390a45050565b3373ffffffffffffffffffffffffffffffffffffffff166000809054906101000a900473ffffffffffffffffffffffffffffffffffffffff1673ffffffffffffffffffffffffffffffffffffffff161415156108f9576040517f08c379a00000000000000000000000000000000000000000000000000000000081526004016108f0906136ff565b60405180910390fd5b80600060146101000a81548160ff02191690831515021790555060011515600060149054906101000a900460ff161515141561096b577f62e78cea01bee320cd4e420270b5ea74000d11b0c9f74754ebdbfc544b05a2583360405161095e91906135b7565b60405180910390a16109a3565b7f5db9ee0a495bf2e6ff9c91a7834c1ba4fdd244a5e8aa4e537bd38aeae4b073aa3360405161099a91906135b7565b60405180910390a15b50565b6000600880549050905090565b6109bd3382611551565b15156109c857600080fd5b6109d38383836115e6565b505050565b610a17828260006040519080825280601f01601f191660200182016040528015610a115781602001600182028038833980820191505090505b50610a92565b5050565b6000610a2683610d9e565b82101515610a3357600080fd5b600660008473ffffffffffffffffffffffffffffffffffffffff1673ffffffffffffffffffffffffffffffffffffffff16815260200190815260200160002082815481101515610a7f57fe5b9060005260206000200154905092915050565b505050565b60003373ffffffffffffffffffffffffffffffffffffffff166000809054906101000a900473ffffffffffffffffffffffffffffffffffffffff1673ffffffffffffffffffffffffffffffffffffffff16141515610b2a576040517f08c379a0000000000000000000000000000000000000000000000000000000008152600401610b21906136ff565b60405180910390fd5b610b34838361160a565b610b3d8261162b565b6001905092915050565b610b628383836040518060200160405280600081525061118a565b505050565b6000610b716109a6565b82101515610b7e57600080fd5b600882815481101515610b8d57fe5b90600052602060002001549050919050565b60006002600083815260200190815260200160002060009054906101000a900473ffffffffffffffffffffffffffffffffffffffff169050919050565b6000610c5660405180604001604052808560000151600001518152602001856000015160200151815250604051806040016040528086602001516000015181526020018660200151602001518152506040518060400160405280876040015160000151815260200187604001516020015181525085610eb9565b9050600073ffffffffffffffffffffffffffffffffffffffff166016600083815260200190815260200160002060010160009054906101000a900473ffffffffffffffffffffffffffffffffffffffff1673ffffffffffffffffffffffffffffffffffffffff16141515610cc957600080fd5b601460009054906101000a900473ffffffffffffffffffffffffffffffffffffffff1673ffffffffffffffffffffffffffffffffffffffff1663f48d772984846040518363ffffffff1660e01b8152600401610d2692919061379f565b60206040518083038186803b158015610d3e57600080fd5b505afa158015610d52573d6000803e3d6000fd5b505050506040513d601f19601f82011682018060405250610d769190810190612d60565b1515610d8157600080fd5b610d8c84868361102a565b610d968585610a97565b505050505050565b6000610de7600460008473ffffffffffffffffffffffffffffffffffffffff1673ffffffffffffffffffffffffffffffffffffffff168152602001908152602001600020611715565b9050919050565b60008060009054906101000a900473ffffffffffffffffffffffffffffffffffffffff16905090565b606060108054600181600116156101000203166002900480601f016020809104026020016040519081016040528092919081815260200182805460018160011615610100020316600290048015610eaf5780601f10610e8457610100808354040283529160200191610eaf565b820191906000526020600020905b815481529060010190602001808311610e9257829003601f168201915b5050505050905090565b600084848484604051602001610ed2949392919061354e565b604051602081830303815290604052805190602001209050949350505050565b3373ffffffffffffffffffffffffffffffffffffffff168273ffffffffffffffffffffffffffffffffffffffff1614151515610f2d57600080fd5b80600560003373ffffffffffffffffffffffffffffffffffffffff1673ffffffffffffffffffffffffffffffffffffffff16815260200190815260200160002060008473ffffffffffffffffffffffffffffffffffffffff1673ffffffffffffffffffffffffffffffffffffffff16815260200190815260200160002060006101000a81548160ff0219169083151502179055508173ffffffffffffffffffffffffffffffffffffffff163373ffffffffffffffffffffffffffffffffffffffff167f17307eab39ab6107e8899845ad3d59bd9653f200f220920489ca2b5937696c318360405161101e9190613647565b60405180910390a35050565b6110326125bc565b60405180604001604052808581526020018473ffffffffffffffffffffffffffffffffffffffff168152509050601581908060018154018082558091505090600182039060005260206000209060020201600090919290919091506000820151816000015560208201518160010160006101000a81548173ffffffffffffffffffffffffffffffffffffffff021916908373ffffffffffffffffffffffffffffffffffffffff16021790555050505080601660008481526020019081526020016000206000820151816000015560208201518160010160006101000a81548173ffffffffffffffffffffffffffffffffffffffff021916908373ffffffffffffffffffffffffffffffffffffffff1602179055509050507f6bc6afc76c0b332ba90fee021156bac0d12ed376d185f1615de6e5c4774f21d384848460405161117c939291906137e5565b60405180910390a150505050565b6111958484846109b3565b6111a184848484611723565b15156111ac57600080fd5b50505050565b60606111bd8261183c565b15156111c857600080fd5b601260008381526020019081526020016000208054600181600116156101000203166002900480601f01602080910402602001604051908101604052809291908181526020018280546001816001161561010002031660029004801561126f5780601f106112445761010080835404028352916020019161126f565b820191906000526020600020905b81548152906001019060200180831161125257829003601f168201915b50505050509050919050565b606060118054600181600116156101000203166002900480601f0160208091040260200160405190810160405280929190818152602001828054600181600116156101000203166002900480156113135780601f106112e857610100808354040283529160200191611313565b820191906000526020600020905b8154815290600101906020018083116112f657829003601f168201915b5050505050905090565b6000600560008473ffffffffffffffffffffffffffffffffffffffff1673ffffffffffffffffffffffffffffffffffffffff16815260200190815260200160002060008373ffffffffffffffffffffffffffffffffffffffff1673ffffffffffffffffffffffffffffffffffffffff16815260200190815260200160002060009054906101000a900460ff16905092915050565b3373ffffffffffffffffffffffffffffffffffffffff166000809054906101000a900473ffffffffffffffffffffffffffffffffffffffff1673ffffffffffffffffffffffffffffffffffffffff16141515611442576040517f08c379a0000000000000000000000000000000000000000000000000000000008152600401611439906136ff565b60405180910390fd5b600073ffffffffffffffffffffffffffffffffffffffff168173ffffffffffffffffffffffffffffffffffffffff16141515156114b4576040517f08c379a00000000000000000000000000000000000000000000000000000000081526004016114ab9061371f565b60405180910390fd5b806000806101000a81548173ffffffffffffffffffffffffffffffffffffffff021916908373ffffffffffffffffffffffffffffffffffffffff1602179055507f3511b702d5ff40e5fdc0ca67119c0c54db468b05276089de85bb310f47308de56000809054906101000a900473ffffffffffffffffffffffffffffffffffffffff168260405161154692919061361e565b60405180910390a150565b60008061155d83610b9f565b90508073ffffffffffffffffffffffffffffffffffffffff168473ffffffffffffffffffffffffffffffffffffffff1614806115cc57508373ffffffffffffffffffffffffffffffffffffffff166115b484610647565b73ffffffffffffffffffffffffffffffffffffffff16145b806115dd57506115dc818561131d565b5b91505092915050565b6115f18383836118ae565b6115fb8382611bc0565b6116058282611d64565b505050565b6116148282611e2b565b61161e8282611d64565b61162781611fe7565b5050565b6116348161183c565b151561163f57600080fd5b6116eb60118054600181600116156101000203166002900480601f0160208091040260200160405190810160405280929190818152602001828054600181600116156101000203166002900480156116d85780601f106116ad576101008083540402835291602001916116d8565b820191906000526020600020905b8154815290600101906020018083116116bb57829003601f168201915b50505050506116e683612033565b61216d565b6012600083815260200190815260200160002090805190602001906117119291906125ec565b5050565b600081600001549050919050565b60006117448473ffffffffffffffffffffffffffffffffffffffff166121b1565b15156117535760019050611834565b60008473ffffffffffffffffffffffffffffffffffffffff1663150b7a02338887876040518563ffffffff1660e01b815260040161179494939291906135d2565b602060405180830381600087803b1580156117ae57600080fd5b505af11580156117c2573d6000803e3d6000fd5b505050506040513d601f19601f820116820180604052506117e69190810190612e85565b905063150b7a0260e01b7bffffffffffffffffffffffffffffffffffffffffffffffffffffffff1916817bffffffffffffffffffffffffffffffffffffffffffffffffffffffff1916149150505b949350505050565b6000806002600084815260200190815260200160002060009054906101000a900473ffffffffffffffffffffffffffffffffffffffff169050600073ffffffffffffffffffffffffffffffffffffffff168173ffffffffffffffffffffffffffffffffffffffff161415915050919050565b6002600082815260200190815260200160002060009054906101000a900473ffffffffffffffffffffffffffffffffffffffff1673ffffffffffffffffffffffffffffffffffffffff168373ffffffffffffffffffffffffffffffffffffffff16141515611951576040517f08c379a00000000000000000000000000000000000000000000000000000000081526004016119489061377f565b60405180910390fd5b600073ffffffffffffffffffffffffffffffffffffffff168273ffffffffffffffffffffffffffffffffffffffff16141515156119c3576040517f08c379a00000000000000000000000000000000000000000000000000000000081526004016119ba9061373f565b60405180910390fd5b600073ffffffffffffffffffffffffffffffffffffffff166003600083815260200190815260200160002060009054906101000a900473ffffffffffffffffffffffffffffffffffffffff1673ffffffffffffffffffffffffffffffffffffffff16141515611a805760006003600083815260200190815260200160002060006101000a81548173ffffffffffffffffffffffffffffffffffffffff021916908373ffffffffffffffffffffffffffffffffffffffff1602179055505b816002600083815260200190815260200160002060006101000a81548173ffffffffffffffffffffffffffffffffffffffff021916908373ffffffffffffffffffffffffffffffffffffffff160217905550611b19600460008573ffffffffffffffffffffffffffffffffffffffff1673ffffffffffffffffffffffffffffffffffffffff1681526020019081526020016000206121fc565b611b60600460008473ffffffffffffffffffffffffffffffffffffffff1673ffffffffffffffffffffffffffffffffffffffff16815260200190815260200160002061221f565b808273ffffffffffffffffffffffffffffffffffffffff168473ffffffffffffffffffffffffffffffffffffffff167fddf252ad1be2c89b69c2b068fc378daa952ba7f163c4a11628f55a4df523b3ef60405160405180910390a4505050565b6000611c186001600660008673ffffffffffffffffffffffffffffffffffffffff1673ffffffffffffffffffffffffffffffffffffffff1681526020019081526020016000208054905061223590919063ffffffff16565b90506000600760008481526020019081526020016000205490508181141515611d0b576000600660008673ffffffffffffffffffffffffffffffffffffffff1673ffffffffffffffffffffffffffffffffffffffff16815260200190815260200160002083815481101515611c8957fe5b9060005260206000200154905080600660008773ffffffffffffffffffffffffffffffffffffffff1673ffffffffffffffffffffffffffffffffffffffff16815260200190815260200160002083815481101515611ce357fe5b9060005260206000200181905550816007600083815260200190815260200160002081905550505b600660008573ffffffffffffffffffffffffffffffffffffffff1673ffffffffffffffffffffffffffffffffffffffff168152602001908152602001600020805480919060019003611d5d919061266c565b5050505050565b600660008373ffffffffffffffffffffffffffffffffffffffff1673ffffffffffffffffffffffffffffffffffffffff168152602001908152602001600020805490506007600083815260200190815260200160002081905550600660008373ffffffffffffffffffffffffffffffffffffffff1673ffffffffffffffffffffffffffffffffffffffff1681526020019081526020016000208190806001815401808255809150509060018203906000526020600020016000909192909190915055505050565b611e348161183c565b151515611e76576040517f08c379a0000000000000000000000000000000000000000000000000000000008152600401611e6d906136bf565b60405180910390fd5b600073ffffffffffffffffffffffffffffffffffffffff168273ffffffffffffffffffffffffffffffffffffffff1614151515611ee8576040517f08c379a0000000000000000000000000000000000000000000000000000000008152600401611edf9061375f565b60405180910390fd5b816002600083815260200190815260200160002060006101000a81548173ffffffffffffffffffffffffffffffffffffffff021916908373ffffffffffffffffffffffffffffffffffffffff160217905550611f81600460008473ffffffffffffffffffffffffffffffffffffffff1673ffffffffffffffffffffffffffffffffffffffff16815260200190815260200160002061221f565b808273ffffffffffffffffffffffffffffffffffffffff16611fa1610dee565b73ffffffffffffffffffffffffffffffffffffffff167fddf252ad1be2c89b69c2b068fc378daa952ba7f163c4a11628f55a4df523b3ef60405160405180910390a45050565b6008805490506009600083815260200190815260200160002081905550600881908060018154018082558091505090600182039060005260206000200160009091929091909150555050565b6060600082141561207b576040518060400160405280600181526020017f30000000000000000000000000000000000000000000000000000000000000008152509050612168565b600082905060005b6000821415156120a9578080600101915050600a828115156120a157fe5b049150612083565b6060816040519080825280601f01601f1916602001820160405280156120de5781602001600182028038833980820191505090505b50905060006001830390505b60008614151561216057600a8681151561210057fe5b0660300160f81b82828060019003935081518110151561211c57fe5b9060200101907effffffffffffffffffffffffffffffffffffffffffffffffffffffffffffff1916908160001a905350600a8681151561215857fe5b0495506120ea565b819450505050505b919050565b60606121a9838360405180602001604052806000815250604051806020016040528060008152506040518060200160405280600081525061227f565b905092915050565b60008060007fc5d2460186f7233c927e7db2dcc703c0e500b653ca82273b7bfad8045d85a47060001b9050833f91508082141580156121f357506000801b8214155b92505050919050565b6122146001826000015461223590919063ffffffff16565b816000018190555050565b6001816000016000828254019250508190555050565b600061227783836040518060400160405280601e81526020017f536166654d6174683a207375627472616374696f6e206f766572666c6f77000081525061255f565b905092915050565b6060808690506060869050606086905060608690506060869050606081518351855187518951010101016040519080825280601f01601f1916602001820160405280156122db5781602001600182028038833980820191505090505b509050606081905060008090506000809050600090505b885181101561236657888181518110151561230957fe5b90602001015160f81c60f81b838380600101945081518110151561232957fe5b9060200101907effffffffffffffffffffffffffffffffffffffffffffffffffffffffffffff1916908160001a90535080806001019150506122f2565b600090505b87518110156123df57878181518110151561238257fe5b90602001015160f81c60f81b83838060010194508151811015156123a257fe5b9060200101907effffffffffffffffffffffffffffffffffffffffffffffffffffffffffffff1916908160001a905350808060010191505061236b565b600090505b86518110156124585786818151811015156123fb57fe5b90602001015160f81c60f81b838380600101945081518110151561241b57fe5b9060200101907effffffffffffffffffffffffffffffffffffffffffffffffffffffffffffff1916908160001a90535080806001019150506123e4565b600090505b85518110156124d157858181518110151561247457fe5b90602001015160f81c60f81b838380600101945081518110151561249457fe5b9060200101907effffffffffffffffffffffffffffffffffffffffffffffffffffffffffffff1916908160001a905350808060010191505061245d565b600090505b845181101561254a5784818151811015156124ed57fe5b90602001015160f81c60f81b838380600101945081518110151561250d57fe5b9060200101907effffffffffffffffffffffffffffffffffffffffffffffffffffffffffffff1916908160001a90535080806001019150506124d6565b82995050505050505050505095945050505050565b600083831115829015156125a9576040517f08c379a00000000000000000000000000000000000000000000000000000000081526004016125a0919061367d565b60405180910390fd5b5060008385039050809150509392505050565b604051806040016040528060008152602001600073ffffffffffffffffffffffffffffffffffffffff1681525090565b828054600181600116156101000203166002900490600052602060002090601f016020900481019282601f1061262d57805160ff191683800117855561265b565b8280016001018555821561265b579182015b8281111561265a57825182559160200191906001019061263f565b5b5090506126689190612698565b5090565b815481835581811115612693578183600052602060002091820191016126929190612698565b5b505050565b6126ba91905b808211156126b657600081600090555060010161269e565b5090565b90565b60006126c98235613a7d565b905092915050565b600082601f83011215156126e457600080fd5b60026126f76126f282613849565b61381c565b9150818385604084028201111561270d57600080fd5b60005b8381101561273d578161272388826127bd565b845260208401935060408301925050600181019050612710565b5050505092915050565b600082601f830112151561275a57600080fd5b600161276d6127688261386b565b61381c565b9150818385602084028201111561278357600080fd5b60005b838110156127b357816127998882612ab2565b845260208401935060208301925050600181019050612786565b5050505092915050565b600082601f83011215156127d057600080fd5b60026127e36127de8261388d565b61381c565b915081838560208402820111156127f957600080fd5b60005b83811015612829578161280f8882612ab2565b8452602084019350602083019250506001810190506127fc565b5050505092915050565b600082601f830112151561284657600080fd5b6002612859612854826138af565b61381c565b9150818385602084028201111561286f57600080fd5b60005b8381101561289f57816128858882612ab2565b845260208401935060208301925050600181019050612872565b5050505092915050565b60006128b58235613a8f565b905092915050565b60006128c98251613a8f565b905092915050565b60006128dd8235613a9b565b905092915050565b60006128f18235613aa5565b905092915050565b60006129058251613aa5565b905092915050565b600082601f830112151561292057600080fd5b813561293361292e826138d1565b61381c565b9150808252602083016020830185838301111561294f57600080fd5b61295a838284613b31565b50505092915050565b600082601f830112151561297657600080fd5b8135612989612984826138fd565b61381c565b915080825260208301602083018583830111156129a557600080fd5b6129b0838284613b31565b50505092915050565b6000604082840312156129cb57600080fd5b6129d5604061381c565b905060006129e584828501612ab2565b60008301525060206129f984828501612ab2565b60208301525092915050565b600060808284031215612a1757600080fd5b612a21604061381c565b90506000612a31848285016127bd565b6000830152506040612a45848285016127bd565b60208301525092915050565b60006101008284031215612a6457600080fd5b612a6e606061381c565b90506000612a7e848285016129b9565b6000830152506040612a9284828501612a05565b60208301525060c0612aa6848285016129b9565b60408301525092915050565b6000612abe8235613af1565b905092915050565b600060208284031215612ad857600080fd5b6000612ae6848285016126bd565b91505092915050565b60008060408385031215612b0257600080fd5b6000612b10858286016126bd565b9250506020612b21858286016126bd565b9150509250929050565b600080600060608486031215612b4057600080fd5b6000612b4e868287016126bd565b9350506020612b5f868287016126bd565b9250506040612b7086828701612ab2565b9150509250925092565b60008060008060808587031215612b9057600080fd5b6000612b9e878288016126bd565b9450506020612baf878288016126bd565b9350506040612bc087828801612ab2565b925050606085013567ffffffffffffffff811115612bdd57600080fd5b612be98782880161290d565b91505092959194509250565b60008060408385031215612c0857600080fd5b6000612c16858286016126bd565b9250506020612c27858286016128a9565b9150509250929050565b60008060408385031215612c4457600080fd5b6000612c52858286016126bd565b9250506020612c6385828601612ab2565b9150509250929050565b6000806000806101608587031215612c8457600080fd5b6000612c92878288016126bd565b9450506020612ca387828801612ab2565b9350506040612cb487828801612a51565b925050610140612cc687828801612747565b91505092959194509250565b6000806000806101208587031215612ce957600080fd5b6000612cf787828801612833565b9450506040612d08878288016126d1565b93505060c0612d1987828801612833565b925050610100612d2b87828801612747565b91505092959194509250565b600060208284031215612d4957600080fd5b6000612d57848285016128a9565b91505092915050565b600060208284031215612d7257600080fd5b6000612d80848285016128bd565b91505092915050565b60008060408385031215612d9c57600080fd5b6000612daa858286016128d1565b925050602083013567ffffffffffffffff811115612dc757600080fd5b612dd385828601612963565b9150509250929050565b600080600060608486031215612df257600080fd5b6000612e00868287016128d1565b935050602084013567ffffffffffffffff811115612e1d57600080fd5b612e2986828701612963565b925050604084013567ffffffffffffffff811115612e4657600080fd5b612e528682870161290d565b9150509250925092565b600060208284031215612e6e57600080fd5b6000612e7c848285016128e5565b91505092915050565b600060208284031215612e9757600080fd5b6000612ea5848285016128f9565b91505092915050565b600060208284031215612ec057600080fd5b6000612ece84828501612ab2565b91505092915050565b600080600060608486031215612eec57600080fd5b6000612efa86828701612ab2565b9350506020612f0b868287016126bd565b9250506040612f1c868287016128d1565b9150509250925092565b6000612f32838361312b565b60408301905092915050565b6000612f4a8383613521565b60208301905092915050565b6000612f62838361353f565b60208301905092915050565b612f7781613afb565b82525050565b612f8681613a2b565b82525050565b612f9581613951565b612f9f81846139c7565b9250612faa82613929565b60005b82811015612fd857612fc0858351612f26565b9450612fcb82613993565b9150600181019050612fad565b5050505050565b612fe88161395c565b612ff281846139d2565b9250612ffd82613933565b60005b8281101561302b57613013858351612f3e565b945061301e826139a0565b9150600181019050613000565b5050505050565b61303b8161395c565b61304581846139dd565b925061305082613933565b60005b8281101561307e57613066858351612f56565b9450613071826139a0565b9150600181019050613053565b5050505050565b61308e81613972565b61309881846139fe565b92506130a382613947565b60005b828110156130d1576130b9858351612f56565b94506130c4826139ba565b91506001810190506130a6565b5050505050565b6130e181613967565b6130eb81846139e8565b92506130f68261393d565b60005b828110156131245761310c858351612f3e565b9450613117826139ad565b91506001810190506130f9565b5050505050565b61313481613967565b61313e81846139f3565b92506131498261393d565b60005b828110156131775761315f858351612f56565b945061316a826139ad565b915060018101905061314c565b5050505050565b61318781613a3d565b82525050565b61319681613a49565b82525050565b60006131a78261397d565b6131b18185613a09565b93506131c1818560208601613b40565b6131ca81613b73565b840191505092915050565b60006131e082613988565b6131ea8185613a1a565b93506131fa818560208601613b40565b61320381613b73565b840191505092915050565b600061321b602083613a1a565b91507f746f20697320616c7265616479206f776e6572206f662074686520746f6b656e6000830152602082019050919050565b600061325b601483613a1a565b91507f546f6b656e20616c7265616479206578697374730000000000000000000000006000830152602082019050919050565b600061329b604183613a1a565b91507f53656e6465722073686f756c6420626520636f6e7472616374206f776e65722060008301527f6f7220746f2073686f756c6420626520617070726f766564206f70657261746f60208301527f72000000000000000000000000000000000000000000000000000000000000006040830152606082019050919050565b6000613327601383613a1a565b91507f4f6e6c79206f776e65727320706c6561736521000000000000000000000000006000830152602082019050919050565b6000613367601283613a1a565b91507f4e6f742061207265616c206164647265737300000000000000000000000000006000830152602082019050919050565b60006133a7601f83613a1a565b91507f746f2061646472657373206973206e6f742076616c69642061646472657373006000830152602082019050919050565b60006133e7601283613a1a565b91507f496e76616c696420746f206164647265737300000000000000000000000000006000830152602082019050919050565b6000613427602a83613a1a565b91507f66726f6d2061646472657373206973206e6f7420746865206f776e6572206f6660008301527f2074686520746f6b656e000000000000000000000000000000000000000000006020830152604082019050919050565b6040820160008201516134966000850182613521565b5060208201516134a96020850182613521565b50505050565b6080820160008201516134c560008501826130d8565b5060208201516134d860408501826130d8565b50505050565b610100820160008201516134f56000850182613480565b50602082015161350860408501826134af565b50604082015161351b60c0850182613480565b50505050565b61352a81613a73565b82525050565b61353981613a73565b82525050565b61354881613a73565b82525050565b600061355a8287613085565b60408201915061356a8286612f8c565b60808201915061357a8285613085565b60408201915061358a8284613032565b60208201915081905095945050505050565b60006020820190506135b16000830184612f7d565b92915050565b60006020820190506135cc6000830184612f6e565b92915050565b60006080820190506135e76000830187612f6e565b6135f46020830186612f7d565b6136016040830185613530565b8181036060830152613613818461319c565b905095945050505050565b60006040820190506136336000830185612f7d565b6136406020830184612f7d565b9392505050565b600060208201905061365c600083018461317e565b92915050565b6000602082019050613677600083018461318d565b92915050565b6000602082019050818103600083015261369781846131d5565b905092915050565b600060208201905081810360008301526136b88161320e565b9050919050565b600060208201905081810360008301526136d88161324e565b9050919050565b600060208201905081810360008301526136f88161328e565b9050919050565b600060208201905081810360008301526137188161331a565b9050919050565b600060208201905081810360008301526137388161335a565b9050919050565b600060208201905081810360008301526137588161339a565b9050919050565b60006020820190508181036000830152613778816133da565b9050919050565b600060208201905081810360008301526137988161341a565b9050919050565b6000610120820190506137b560008301856134de565b6137c3610100830184612fdf565b9392505050565b60006020820190506137df6000830184613530565b92915050565b60006060820190506137fa6000830186613530565b6138076020830185612f7d565b613814604083018461318d565b949350505050565b6000604051905081810181811067ffffffffffffffff8211171561383f57600080fd5b8060405250919050565b600067ffffffffffffffff82111561386057600080fd5b602082029050919050565b600067ffffffffffffffff82111561388257600080fd5b602082029050919050565b600067ffffffffffffffff8211156138a457600080fd5b602082029050919050565b600067ffffffffffffffff8211156138c657600080fd5b602082029050919050565b600067ffffffffffffffff8211156138e857600080fd5b601f19601f8301169050602081019050919050565b600067ffffffffffffffff82111561391457600080fd5b601f19601f8301169050602081019050919050565b6000819050919050565b6000819050919050565b6000819050919050565b6000819050919050565b600060029050919050565b600060019050919050565b600060029050919050565b600060029050919050565b600081519050919050565b600081519050919050565b6000602082019050919050565b6000602082019050919050565b6000602082019050919050565b6000602082019050919050565b600081905092915050565b600081905092915050565b600081905092915050565b600081905092915050565b600081905092915050565b600081905092915050565b600082825260208201905092915050565b600082825260208201905092915050565b6000613a3682613a53565b9050919050565b60008115159050919050565b6000819050919050565b600073ffffffffffffffffffffffffffffffffffffffff82169050919050565b6000819050919050565b6000613a8882613ad1565b9050919050565b60008115159050919050565b6000819050919050565b60007fffffffff0000000000000000000000000000000000000000000000000000000082169050919050565b600073ffffffffffffffffffffffffffffffffffffffff82169050919050565b6000819050919050565b6000613b0682613b0d565b9050919050565b6000613b1882613b1f565b9050919050565b6000613b2a82613a53565b9050919050565b82818337600083830152505050565b60005b83811015613b5e578082015181840152602081019050613b43565b83811115613b6d576000848401525b50505050565b6000601f19601f830116905091905056fea265627a7a723058204b7d171a70e9ed29390093862a5ff08e7f8f4e5d92a87fbb47a94eb679fbb5186c6578706572696d656e74616cf5003768747470733a2f2f73332d75732d776573742d322e616d617a6f6e6177732e636f6d2f756461636974792d626c6f636b636861696e2f63617073746f6e652f",
  "source": "pragma solidity >=0.4.21 <0.6.0;\npragma experimental ABIEncoderV2;\n\nimport \"./ERC721Mintable.sol\";\nimport \"./SquareVerifier.sol\";\n\n\n//define another contract named SolnSquareVerifier that inherits from your ERC721Mintable class\ncontract SolnSquareVerifier is CustomERC721Token {\n    //define a contract call to the zokrates generated solidity contract <Verifier> or <renamedVerifier>\n    Verifier private squareVerifier;\n\n    constructor (address verifierAddress) CustomERC721Token(\"PTOK\", \"SYM\") public {\n        squareVerifier = Verifier(verifierAddress);\n    }\n\n    //define a solutions struct that can hold an index & an address\n    struct Solution{\n        uint256 index;\n        address to;\n    }\n\n    //define an array of the above struct\n    Solution[] solutions;\n\n    //define a mapping to store unique solutions submitted\n    mapping(bytes32 => Solution) solutionsMapping;\n\n    //Create an event to emit when a solution is added\n    event SolutionAdded(uint256 index, address to, bytes32 key);\n\n    //Create a function to add the solutions to the array and emit the event\n    function addSolution(uint256 index, address to, bytes32 key) public {\n        Solution memory solution = Solution(index, to);\n        solutions.push(solution);\n        solutionsMapping[key] = solution;\n        emit SolutionAdded(index, to, key );\n    }\n\n    //Create a function to mint new NFT only after the solution has been verified\n    //  - make sure the solution is unique (has not been used before)\n    //  - make sure you handle metadata as well as tokenSuplly\n    function mintToken(address to, uint256 tokenId,\n        Verifier.Proof memory proof, uint[1] memory inputs)\n    public\n    {\n        bytes32 soluitonKey = generateKey([proof.a.X, proof.a.Y], [proof.b.X, proof.b.Y], [proof.c.X, proof.c.Y], inputs);\n        require(solutionsMapping[soluitonKey].to == address(0));//make sure the solution is unique (has not been used before)\n        require(squareVerifier.verifyTx(proof,inputs));\n        addSolution(tokenId, to, soluitonKey);\n        mint(to, tokenId);\n    }\n\n    //Generate an unique key per solution\n    function generateKey(uint[2] memory a,\n        uint[2][2] memory b, uint[2] memory c,\n        uint[1] memory inputs) pure public returns(bytes32) {\n        return keccak256(abi.encodePacked(a, b, c, inputs));\n    }\n\n}\n\n\n\n\n\n\n  \n\n\n\n\n\n\n\n\n\n\n\n\n\n\n\n\n\n\n\n\n\n\n\n\n\n\n",
  "sourcePath": "/Users/waghmarerajkumar/projects/udacity-bc-nanodegree/Blockchain-Capstone/eth-contracts/contracts/SolnSquareVerifier.sol",
  "compiler": {
    "name": "solc",
    "version": "0.5.5+commit.47a71e8f.Emscripten.clang"
  },
  "schemaVersion": "3.0.23",
  "updatedAt": "2022-08-01T14:22:52.399Z",
  "networkType": "ethereum",
  "devdoc": {
    "methods": {
      "isApprovedForAll(address,address)": {
        "details": "Tells whether an operator is approved by a given owner",
        "params": {
          "operator": "operator address which you want to query the approval of",
          "owner": "owner address which you want to query the approval of"
        },
        "return": "bool whether the given operator is approved by the given owner"
      },
      "setApprovalForAll(address,bool)": {
        "details": "Sets or unsets the approval of a given operator An operator is allowed to transfer all tokens of the sender on their behalf",
        "params": {
          "approved": "representing the status of the approval to be set",
          "to": "operator address to set the approval"
        }
      },
      "supportsInterface(bytes4)": {
        "details": "implement supportsInterface(bytes4) using a lookup table"
      },
      "tokenByIndex(uint256)": {
        "details": "Gets the token ID at a given index of all the tokens in this contract Reverts if the index is greater or equal to the total number of tokens",
        "params": {
          "index": "uint256 representing the index to be accessed of the tokens list"
        },
        "return": "uint256 token ID at the given index of the tokens list"
      },
      "tokenOfOwnerByIndex(address,uint256)": {
        "details": "Gets the token ID at a given index of the tokens list of the requested owner",
        "params": {
          "index": "uint256 representing the index to be accessed of the requested tokens list",
          "owner": "address owning the tokens list to be accessed"
        },
        "return": "uint256 token ID at the given index of the tokens list owned by the requested address"
      },
      "totalSupply()": {
        "details": "Gets the total amount of tokens stored by the contract",
        "return": "uint256 representing the total amount of tokens"
      }
    }
  },
  "userdoc": {
    "methods": {
      "setPaused(bool)": {
        "notice": "Let owner set the paused mode."
      }
    }
  }
}