{
  "contractName": "Verifier",
  "abi": [
    {
      "constant": true,
      "inputs": [
        {
          "components": [
            {
              "components": [
                {
                  "name": "X",
                  "type": "uint256"
                },
                {
                  "name": "Y",
                  "type": "uint256"
                }
              ],
              "name": "a",
              "type": "tuple"
            },
            {
              "components": [
                {
                  "name": "X",
                  "type": "uint256[2]"
                },
                {
                  "name": "Y",
                  "type": "uint256[2]"
                }
              ],
              "name": "b",
              "type": "tuple"
            },
            {
              "components": [
                {
                  "name": "X",
                  "type": "uint256"
                },
                {
                  "name": "Y",
                  "type": "uint256"
                }
              ],
              "name": "c",
              "type": "tuple"
            }
          ],
          "name": "proof",
          "type": "tuple"
        },
        {
          "name": "input",
          "type": "uint256[1]"
        }
      ],
      "name": "verifyTx",
      "outputs": [
        {
          "name": "r",
          "type": "bool"
        }
      ],
      "payable": false,
      "stateMutability": "view",
      "type": "function"
    }
  ],
  "bytecode": "0x608060405234801561001057600080fd5b506110c8806100206000396000f3fe608060405234801561001057600080fd5b506004361061002b5760003560e01c8063f48d772914610030575b600080fd5b61004a60048036036100459190810190610f9f565b610060565b6040516100579190610fec565b60405180910390f35b6000606060016040519080825280602002602001820160405280156100945781602001602082028038833980820191505090505b50905060008090505b60018110156100e25783816001811015156100b457fe5b602002015182828151811015156100c757fe5b9060200190602002018181525050808060010191505061009d565b5060006100ef828661010b565b14156100ff576001915050610105565b60009150505b92915050565b6000807f30644e72e131a029b85045b68181585d2833e84879b9709143e1f593f00000019050610139610c7c565b610141610293565b9050806080015151600186510114151561015a57600080fd5b610162610cc4565b6040518060400160405280600081526020016000815250905060008090505b86518110156102065783878281518110151561019957fe5b906020019060200201511015156101af57600080fd5b6101f7826101f28560800151600185018151811015156101cb57fe5b906020019060200201518a858151811015156101e357fe5b90602001906020020151610676565b610710565b91508080600101915050610181565b5061022d818360800151600081518110151561021e57fe5b90602001906020020151610710565b905061027385600001518660200151610245846107cb565b85604001516102578a604001516107cb565b876060015161026989600001516107cb565b8960200151610867565b1515610285576001935050505061028d565b600093505050505b92915050565b61029b610c7c565b60405180604001604052807eb63c718a5737164ce3f3846cb7da35a62202c57976d83149aa3ea0f22a33b681526020017f1960d645051e73ed768630eccc869a7b40b389f10bfddce65e41043c41047a4d8152508160000181905250604051806040016040528060405180604001604052807f07b6311fcdb68ae6557c8cd4dddef935446fed8fff5a47ce6fdbc4344ccc7c1181526020017f02f6e7d1492bc9facdb8edd117f1f69e3cc7c7f8cb365b57bb99a2b0d07ef60d815250815260200160405180604001604052807f28cb2c4e164af94dd7b8d55a80470dbe5b970ce1e79b5e5aa47050fd7f51772f81526020017f18c7f6140df2c5a097bc8c8df2a2448de2c75aa90b7f7e5a0a35e04a4d3f8c088152508152508160200181905250604051806040016040528060405180604001604052807f0b01f221b3ab505539766f32d1e5210c19ba09471ea37f3e76fb6c9b51a1803c81526020017f0b07eb336ed0f47891a796d6396d161eede1fb88c229213ba0a6d9953b0382eb815250815260200160405180604001604052807eb3e38d492e610413593275fb619b76c4a85b5216b4c4e7caa26d8bf5200eb181526020017f1d724aa906534c8ecdf8da83cf6b2d7c49fb705a2809e908da0492da63bf30eb8152508152508160400181905250604051806040016040528060405180604001604052807f15678d2d9acb828640dc030983d793d3adfe04fe1d48c5a931f15ba8b0f2835481526020017f1ed31db78ea3c5e7945f5b631265aa96f1cc45fa803c21617ce1482c4574527c815250815260200160405180604001604052807f13b2f0de570df4fb171fac9514f0b77d957c3e80320f9af34a6ebca1858e0d3181526020017f18e3fe684a493f522065a17999f40744935a8b4cc03d63a9c17a817aa2b8cbe48152508152508160600181905250600260405190808252806020026020018201604052801561058057816020015b61056d610cde565b8152602001906001900390816105655790505b50816080018190525060405180604001604052807f0d7d4f287fe2cdfa0a5196b943ae10d76d6e59fb485bd060f070ad7a94fd4f0b81526020017f1c36a0c9a6831258614dabd26569a4b1a6d3e786ebd2bbbc3a105b3eb2d8929b815250816080015160008151811015156105f157fe5b9060200190602002018190525060405180604001604052807f275d4ffa0257e9d6dc46af8c49f93052fb8c72106fedbd1ec966bd2a70fbe9d381526020017f0aafc7c1236273475eb3bbfd1993f56c895b9aee4bc8f3dc17aff172eb903e658152508160800151600181518110151561066657fe5b9060200190602002018190525090565b61067e610cc4565b610686610cf8565b836000015181600060038110151561069a57fe5b60200201818152505083602001518160016003811015156106b757fe5b602002018181525050828160026003811015156106d057fe5b602002018181525050600060608360808460076107d05a03fa905080600081146106f9576106fb565bfe5b5080151561070857600080fd5b505092915050565b610718610cc4565b610720610d1a565b836000015181600060048110151561073457fe5b602002018181525050836020015181600160048110151561075157fe5b602002018181525050826000015181600260048110151561076e57fe5b602002018181525050826020015181600360048110151561078b57fe5b602002018181525050600060608360c08460066107d05a03fa905080600081146107b4576107b6565bfe5b508015156107c357600080fd5b505092915050565b6107d3610cc4565b60007f30644e72e131a029b85045b68181585d97816a916871ca8d3c208c16d87cfd47905060008360000151148015610810575060008360200151145b15610834576040518060400160405280600081526020016000815250915050610862565b60405180604001604052808460000151815260200182856020015181151561085857fe5b0683038152509150505b919050565b6000606060046040519080825280602002602001820160405280156108a657816020015b610893610cde565b81526020019060019003908161088b5790505b509050606060046040519080825280602002602001820160405280156108e657816020015b6108d3610d3c565b8152602001906001900390816108cb5790505b5090508a8260008151811015156108f957fe5b906020019060200201819052508882600181518110151561091657fe5b906020019060200201819052508682600281518110151561093357fe5b906020019060200201819052508482600381518110151561095057fe5b906020019060200201819052508981600081518110151561096d57fe5b906020019060200201819052508781600181518110151561098a57fe5b90602001906020020181905250858160028151811015156109a757fe5b90602001906020020181905250838160038151811015156109c457fe5b906020019060200201819052506109db82826109eb565b9250505098975050505050505050565b6000815183511415156109fd57600080fd5b6000835190506000600682029050606081604051908082528060200260200182016040528015610a3c5781602001602082028038833980820191505090505b50905060008090505b83811015610c1a578681815181101515610a5b57fe5b90602001906020020151600001518260006006840201815181101515610a7d57fe5b90602001906020020181815250508681815181101515610a9957fe5b90602001906020020151602001518260016006840201815181101515610abb57fe5b90602001906020020181815250508581815181101515610ad757fe5b90602001906020020151600001516001600281101515610af357fe5b60200201518260026006840201815181101515610b0c57fe5b90602001906020020181815250508581815181101515610b2857fe5b90602001906020020151600001516000600281101515610b4457fe5b60200201518260036006840201815181101515610b5d57fe5b90602001906020020181815250508581815181101515610b7957fe5b90602001906020020151602001516001600281101515610b9557fe5b60200201518260046006840201815181101515610bae57fe5b90602001906020020181815250508581815181101515610bca57fe5b90602001906020020151602001516000600281101515610be657fe5b60200201518260056006840201815181101515610bff57fe5b90602001906020020181815250508080600101915050610a45565b50610c23610d62565b6000602082602086026020860160086107d05a03fa90508060008114610c4857610c4a565bfe5b50801515610c5757600080fd5b6000826000600181101515610c6857fe5b602002015114159550505050505092915050565b604051806101e00160405280610c90610cde565b8152602001610c9d610d3c565b8152602001610caa610d3c565b8152602001610cb7610d3c565b8152602001606081525090565b604051806040016040528060008152602001600081525090565b604051806040016040528060008152602001600081525090565b6040518060600160405280600390602082028038833980820191505090505090565b6040518060800160405280600490602082028038833980820191505090505090565b6040518060800160405280610d4f610d84565b8152602001610d5c610d84565b81525090565b6040518060200160405280600190602082028038833980820191505090505090565b6040518060400160405280600290602082028038833980820191505090505090565b600082601f8301121515610db957600080fd5b6001610dcc610dc782611034565b611007565b91508183856020840282011115610de257600080fd5b60005b83811015610e125781610df88882610f8b565b845260208401935060208301925050600181019050610de5565b5050505092915050565b600082601f8301121515610e2f57600080fd5b6002610e42610e3d82611056565b611007565b91508183856020840282011115610e5857600080fd5b60005b83811015610e885781610e6e8882610f8b565b845260208401935060208301925050600181019050610e5b565b5050505092915050565b600060408284031215610ea457600080fd5b610eae6040611007565b90506000610ebe84828501610f8b565b6000830152506020610ed284828501610f8b565b60208301525092915050565b600060808284031215610ef057600080fd5b610efa6040611007565b90506000610f0a84828501610e1c565b6000830152506040610f1e84828501610e1c565b60208301525092915050565b60006101008284031215610f3d57600080fd5b610f476060611007565b90506000610f5784828501610e92565b6000830152506040610f6b84828501610ede565b60208301525060c0610f7f84828501610e92565b60408301525092915050565b6000610f978235611084565b905092915050565b6000806101208385031215610fb357600080fd5b6000610fc185828601610f2a565b925050610100610fd385828601610da6565b9150509250929050565b610fe681611078565b82525050565b60006020820190506110016000830184610fdd565b92915050565b6000604051905081810181811067ffffffffffffffff8211171561102a57600080fd5b8060405250919050565b600067ffffffffffffffff82111561104b57600080fd5b602082029050919050565b600067ffffffffffffffff82111561106d57600080fd5b602082029050919050565b60008115159050919050565b600081905091905056fea265627a7a72305820f76aeff79e74de5580a38def8be342d99fb8629b4dc2a7bbd77fe247d3a306746c6578706572696d656e74616cf50037",
  "source": "// This file is MIT Licensed.\n//\n// Copyright 2017 Christian Reitwiessner\n// Permission is hereby granted, free of charge, to any person obtaining a copy of this software and associated documentation files (the \"Software\"), to deal in the Software without restriction, including without limitation the rights to use, copy, modify, merge, publish, distribute, sublicense, and/or sell copies of the Software, and to permit persons to whom the Software is furnished to do so, subject to the following conditions:\n// The above copyright notice and this permission notice shall be included in all copies or substantial portions of the Software.\n// THE SOFTWARE IS PROVIDED \"AS IS\", WITHOUT WARRANTY OF ANY KIND, EXPRESS OR IMPLIED, INCLUDING BUT NOT LIMITED TO THE WARRANTIES OF MERCHANTABILITY, FITNESS FOR A PARTICULAR PURPOSE AND NONINFRINGEMENT. IN NO EVENT SHALL THE AUTHORS OR COPYRIGHT HOLDERS BE LIABLE FOR ANY CLAIM, DAMAGES OR OTHER LIABILITY, WHETHER IN AN ACTION OF CONTRACT, TORT OR OTHERWISE, ARISING FROM, OUT OF OR IN CONNECTION WITH THE SOFTWARE OR THE USE OR OTHER DEALINGS IN THE SOFTWARE.\n//pragma solidity ^0.8.0;\npragma solidity >= 0.5.0;\npragma experimental ABIEncoderV2;\n\nlibrary Pairing {\n    struct G1Point {\n        uint X;\n        uint Y;\n    }\n    // Encoding of field elements is: X[0] * z + X[1]\n    struct G2Point {\n        uint[2] X;\n        uint[2] Y;\n    }\n    /// @return the generator of G1\n    function P1() pure internal returns (G1Point memory) {\n        return G1Point(1, 2);\n    }\n    /// @return the generator of G2\n    function P2() pure internal returns (G2Point memory) {\n        return G2Point(\n            [10857046999023057135944570762232829481370756359578518086990519993285655852781,\n             11559732032986387107991004021392285783925812861821192530917403151452391805634],\n            [8495653923123431417604973247489272438418190587263600148770280649306958101930,\n             4082367875863433681332203403145435568316851327593401208105741076214120093531]\n        );\n    }\n    /// @return the negation of p, i.e. p.addition(p.negate()) should be zero.\n    function negate(G1Point memory p) pure internal returns (G1Point memory) {\n        // The prime q in the base field F_q for G1\n        uint q = 21888242871839275222246405745257275088696311157297823662689037894645226208583;\n        if (p.X == 0 && p.Y == 0)\n            return G1Point(0, 0);\n        return G1Point(p.X, q - (p.Y % q));\n    }\n    /// @return r the sum of two points of G1\n    function addition(G1Point memory p1, G1Point memory p2) internal view returns (G1Point memory r) {\n        uint[4] memory input;\n        input[0] = p1.X;\n        input[1] = p1.Y;\n        input[2] = p2.X;\n        input[3] = p2.Y;\n        bool success;\n        assembly {\n            success := staticcall(sub(gas(), 2000), 6, input, 0xc0, r, 0x60)\n            // Use \"invalid\" to make gas estimation work\n            switch success case 0 { invalid() }\n        }\n        require(success);\n    }\n\n\n    /// @return r the product of a point on G1 and a scalar, i.e.\n    /// p == p.scalar_mul(1) and p.addition(p) == p.scalar_mul(2) for all points p.\n    function scalar_mul(G1Point memory p, uint s) internal view returns (G1Point memory r) {\n        uint[3] memory input;\n        input[0] = p.X;\n        input[1] = p.Y;\n        input[2] = s;\n        bool success;\n        assembly {\n            success := staticcall(sub(gas(), 2000), 7, input, 0x80, r, 0x60)\n            // Use \"invalid\" to make gas estimation work\n            switch success case 0 { invalid() }\n        }\n        require (success);\n    }\n    /// @return the result of computing the pairing check\n    /// e(p1[0], p2[0]) *  .... * e(p1[n], p2[n]) == 1\n    /// For example pairing([P1(), P1().negate()], [P2(), P2()]) should\n    /// return true.\n    function pairing(G1Point[] memory p1, G2Point[] memory p2) internal view returns (bool) {\n        require(p1.length == p2.length);\n        uint elements = p1.length;\n        uint inputSize = elements * 6;\n        uint[] memory input = new uint[](inputSize);\n        for (uint i = 0; i < elements; i++)\n        {\n            input[i * 6 + 0] = p1[i].X;\n            input[i * 6 + 1] = p1[i].Y;\n            input[i * 6 + 2] = p2[i].X[1];\n            input[i * 6 + 3] = p2[i].X[0];\n            input[i * 6 + 4] = p2[i].Y[1];\n            input[i * 6 + 5] = p2[i].Y[0];\n        }\n        uint[1] memory out;\n        bool success;\n        assembly {\n            success := staticcall(sub(gas(), 2000), 8, add(input, 0x20), mul(inputSize, 0x20), out, 0x20)\n            // Use \"invalid\" to make gas estimation work\n            switch success case 0 { invalid() }\n        }\n        require(success);\n        return out[0] != 0;\n    }\n    /// Convenience method for a pairing check for two pairs.\n    function pairingProd2(G1Point memory a1, G2Point memory a2, G1Point memory b1, G2Point memory b2) internal view returns (bool) {\n        G1Point[] memory p1 = new G1Point[](2);\n        G2Point[] memory p2 = new G2Point[](2);\n        p1[0] = a1;\n        p1[1] = b1;\n        p2[0] = a2;\n        p2[1] = b2;\n        return pairing(p1, p2);\n    }\n    /// Convenience method for a pairing check for three pairs.\n    function pairingProd3(\n            G1Point memory a1, G2Point memory a2,\n            G1Point memory b1, G2Point memory b2,\n            G1Point memory c1, G2Point memory c2\n    ) internal view returns (bool) {\n        G1Point[] memory p1 = new G1Point[](3);\n        G2Point[] memory p2 = new G2Point[](3);\n        p1[0] = a1;\n        p1[1] = b1;\n        p1[2] = c1;\n        p2[0] = a2;\n        p2[1] = b2;\n        p2[2] = c2;\n        return pairing(p1, p2);\n    }\n    /// Convenience method for a pairing check for four pairs.\n    function pairingProd4(\n            G1Point memory a1, G2Point memory a2,\n            G1Point memory b1, G2Point memory b2,\n            G1Point memory c1, G2Point memory c2,\n            G1Point memory d1, G2Point memory d2\n    ) internal view returns (bool) {\n        G1Point[] memory p1 = new G1Point[](4);\n        G2Point[] memory p2 = new G2Point[](4);\n        p1[0] = a1;\n        p1[1] = b1;\n        p1[2] = c1;\n        p1[3] = d1;\n        p2[0] = a2;\n        p2[1] = b2;\n        p2[2] = c2;\n        p2[3] = d2;\n        return pairing(p1, p2);\n    }\n}\n\ncontract Verifier {\n    using Pairing for *;\n    struct VerifyingKey {\n        Pairing.G1Point alpha;\n        Pairing.G2Point beta;\n        Pairing.G2Point gamma;\n        Pairing.G2Point delta;\n        Pairing.G1Point[] gamma_abc;\n    }\n    struct Proof {\n        Pairing.G1Point a;\n        Pairing.G2Point b;\n        Pairing.G1Point c;\n    }\n    function verifyingKey() pure internal returns (VerifyingKey memory vk) {\n        vk.alpha = Pairing.G1Point(uint256(0x00b63c718a5737164ce3f3846cb7da35a62202c57976d83149aa3ea0f22a33b6), uint256(0x1960d645051e73ed768630eccc869a7b40b389f10bfddce65e41043c41047a4d));\n        vk.beta = Pairing.G2Point([uint256(0x07b6311fcdb68ae6557c8cd4dddef935446fed8fff5a47ce6fdbc4344ccc7c11), uint256(0x02f6e7d1492bc9facdb8edd117f1f69e3cc7c7f8cb365b57bb99a2b0d07ef60d)], [uint256(0x28cb2c4e164af94dd7b8d55a80470dbe5b970ce1e79b5e5aa47050fd7f51772f), uint256(0x18c7f6140df2c5a097bc8c8df2a2448de2c75aa90b7f7e5a0a35e04a4d3f8c08)]);\n        vk.gamma = Pairing.G2Point([uint256(0x0b01f221b3ab505539766f32d1e5210c19ba09471ea37f3e76fb6c9b51a1803c), uint256(0x0b07eb336ed0f47891a796d6396d161eede1fb88c229213ba0a6d9953b0382eb)], [uint256(0x00b3e38d492e610413593275fb619b76c4a85b5216b4c4e7caa26d8bf5200eb1), uint256(0x1d724aa906534c8ecdf8da83cf6b2d7c49fb705a2809e908da0492da63bf30eb)]);\n        vk.delta = Pairing.G2Point([uint256(0x15678d2d9acb828640dc030983d793d3adfe04fe1d48c5a931f15ba8b0f28354), uint256(0x1ed31db78ea3c5e7945f5b631265aa96f1cc45fa803c21617ce1482c4574527c)], [uint256(0x13b2f0de570df4fb171fac9514f0b77d957c3e80320f9af34a6ebca1858e0d31), uint256(0x18e3fe684a493f522065a17999f40744935a8b4cc03d63a9c17a817aa2b8cbe4)]);\n        vk.gamma_abc = new Pairing.G1Point[](2);\n        vk.gamma_abc[0] = Pairing.G1Point(uint256(0x0d7d4f287fe2cdfa0a5196b943ae10d76d6e59fb485bd060f070ad7a94fd4f0b), uint256(0x1c36a0c9a6831258614dabd26569a4b1a6d3e786ebd2bbbc3a105b3eb2d8929b));\n        vk.gamma_abc[1] = Pairing.G1Point(uint256(0x275d4ffa0257e9d6dc46af8c49f93052fb8c72106fedbd1ec966bd2a70fbe9d3), uint256(0x0aafc7c1236273475eb3bbfd1993f56c895b9aee4bc8f3dc17aff172eb903e65));\n    }\n    function verify(uint[] memory input, Proof memory proof) internal view returns (uint) {\n        uint256 snark_scalar_field = 21888242871839275222246405745257275088548364400416034343698204186575808495617;\n        VerifyingKey memory vk = verifyingKey();\n        require(input.length + 1 == vk.gamma_abc.length);\n        // Compute the linear combination vk_x\n        Pairing.G1Point memory vk_x = Pairing.G1Point(0, 0);\n        for (uint i = 0; i < input.length; i++) {\n            require(input[i] < snark_scalar_field);\n            vk_x = Pairing.addition(vk_x, Pairing.scalar_mul(vk.gamma_abc[i + 1], input[i]));\n        }\n        vk_x = Pairing.addition(vk_x, vk.gamma_abc[0]);\n        if(!Pairing.pairingProd4(\n             proof.a, proof.b,\n             Pairing.negate(vk_x), vk.gamma,\n             Pairing.negate(proof.c), vk.delta,\n             Pairing.negate(vk.alpha), vk.beta)) return 1;\n        return 0;\n    }\n    function verifyTx(\n            Proof memory proof, uint[1] memory input\n        ) public view returns (bool r) {\n        uint[] memory inputValues = new uint[](1);\n        \n        for(uint i = 0; i < input.length; i++){\n            inputValues[i] = input[i];\n        }\n        if (verify(inputValues, proof) == 0) {\n            return true;\n        } else {\n            return false;\n        }\n    }\n}\n",
  "sourcePath": "/Users/waghmarerajkumar/projects/udacity-bc-nanodegree/Blockchain-Capstone/eth-contracts/contracts/SquareVerifier.sol",
  "compiler": {
    "name": "solc",
    "version": "0.5.5+commit.47a71e8f.Emscripten.clang"
  },
  "schemaVersion": "3.0.23",
  "updatedAt": "2022-08-01T14:22:52.382Z",
  "networkType": "ethereum",
  "devdoc": {
    "methods": {}
  },
  "userdoc": {
    "methods": {}
  }
}